:020000020000FC
:020000007AC0C4
:02000C001AC018
:0200240039C0E1
:02002C002BC0E7
:1000400014C088278093680000936E0083B180718C
:1000500011F02CD0189583B1807211F035D018951D
:1000600083B1887009F03ED0189580910001839586
:10007000823128F000936800882780936E00809377
:1000800000011895809101018395863010F003B925
:1000900080E08093010118958091020183958C3056
:1000A00010F013B980E080930201189580916F00E1
:1000B000827019F410936F001895882780936F0051
:1000C00085B18E7F85B9089580917000827019F492
:1000D00010937000189588278093700085B18D7FEC
:1000E00085B90895882780936F008093700085B14B
:1000F0008C7F85B9089503E004B988E385B901E0F0
:1001000012E078940093680080936B0085E085BDD1
:100110008DE08093810091E080E09093890080934E
:0A012000880087E08093B100FFCF54
:00000001FF
